:03000000020026D5
:0C002600787FE4F6D8FD75811802006DAB
:1000C8001008C0F9A4B0999282F880908883C6A1DC
:0500D800868E011800F6
:1000030075985043878053890F438920758BF37507
:0B0013008DF3C2ABD28ED2AFD2AC2274
:0800EA0074082FF8E6F58022EE
:03001E000200EAF3
:1000B2001200037590FFE518641060FAAF18120081
:0600C2001E75181080F00D
:030023000200DEFA
:0C00DE00309808859918759910C2983266
:100032000200B2E493A3F8E493A34003F68001F232
:1000420008DFF48029E493A3F85407240CC8C333CF
:10005200C4540F4420C8834004F456800146F6DF9E
:10006200E4800B01020408102040809000C8E47E66
:10007200019360BCA3FF543F30E509541FFEE49393
:10008200A360010ECF54C025E060A840B8E493A35A
:10009200FAE493A3F8E493A3C8C582C8CAC583CA85
:1000A200F0A3C8C582C8CAC583CADFE9DEE780BE3D
:0100DD000022
:00000001FF
