:090A6900012700012607012311F9
:1005070012098F1209F21201CC8F25E525652455B2
:1005170025F527852524601C15271209F2E527658F
:1005270023600A852723AF27120A878007E527B5A7
:100537002302F526E52670051207DC80C9E5266447
:100547000170028006E5266401700512078480B6F3
:10055700E526640270051206B380ABE526640470D5
:10056700087F03FE120277809DE526640570087FE9
:1005770003FE12031B808FE526640670087F03FEC7
:100587001203BF8081E5266407600302050D7F0320
:07059700FE12046302050DD2
:1008A800041F151F151F070040050B191F091D09F7
:1008B80000480A1F041F1F041F00500E0E150F14B6
:0D08C8000A1D0058120A0F1A071D170060C4
:060A4F00C2A58F80D2A6B3
:080A55007F027EEFDEFEDFFCF4
:010A5D002276
:0A0A7300C2A4120A4FC2A6020A55DF
:0A0A7D00D2A4120A4FC2A6020A55C5
:1009F2007F38120A737F0C120A737F06120A737F02
:040A020001020A7370
:100A0600EF64017004ED148003ED243F4480FF126F
:030A16000A73223E
:0808FD008E0D8F0E8C0F8D1083
:100905007F017E00E4FBEBC39510E50F6480F8746E
:0E0915008098500AAC0DAD0E12013F0B80E829
:0109230022B1
:04082D008A0A8B0B9D
:10083100120A06AA0CEAFF7E00D394007480948009
:10084100402BEF24FFFDEE34FFFC7F0A1208FDACC4
:100851000AAD0BCFCDCFCECCCE1201517C007D0A9B
:0D086100120151ED2430FF120A7D1A80C8EB
:01086E002267
:06086F008B088A09890ACA
:10087500E4FDEDC39408748094805026AB08AA0962
:10088500A90A9000081201122DFF120A73AB08AADB
:1008950009A90A8D82758300120112FF120A7D0DC6
:0208A50080D001
:0108A700222E
:090A19007F01120A220B0D7F017E
:0A0A2200AC03120A06AF04020A7DBD
:06094A008B088A09890AEE
:10095000120A06E4FDAB08AA09A90A8D8275830074
:0C096000120112FF6006120A7D0D80E9F2
:01096C002268
:1008D5008B188A19891A120A06AB18AA19A91A12AD
:1008E50000F96013051AE51A7002051914F91200CA
:0808F500F9FF120A7D80E222E6
:1006B3007BFF7A0879A812086F7BFF7A0879B11259
:1006C300086F7BFF7A0879BA12086F7BFF7A087983
:1006D300C312086F7BFF7A0879CC12086FE4FB7DA5
:1006E30001120A19750C047B9B7A080D7F0112080D
:1006F3002D7B027D07120A190B0D120A19750C04C2
:100703007B147A207D017F0212082D750C047BA1D6
:100713007A087D057F0212082D750C027B187A007A
:070723007D097F0202082D91
:100A2C0073643A0077643A0025202020002043208C
:030A3C0020200077
:030A9600DFFE225E
:10096D00D3EF9400EE940040147D6E7C00ED1D706D
:10097D00011CED4C70F7EF1F70E61E80E37E007FCB
:01098D000168
:01098E002246
:1009C600D2A77F02120A96C2A77F1E7E0012096D69
:0709D600D2A77F1E020A9662
:10092400E4FEFDEDC3940874809480501630A7FD56
:100934007F08120A96EE25E0FE30A7010E20A7FDDF
:050944000D80E0AF068C
:01094900228B
:10062A001209C630A7030206B230A7FD7F28120AB4
:10063A00961209248F081209248F091209248F0A95
:10064A00120924A9071209248F0D7F19120A96E5A7
:10065A00082509FFE433FE7C00EF250AFFEC3EFE85
:10066A00E92FFFEC3EFEEFB50D0DECB50609AA0821
:10067A0085090BAB0A890CEA75F00A842430F51F48
:10068A00EA75F00A84E5F02430F5207521207522F8
:10069A0020EB75F00A842430F51BEB75F00A84E52B
:0806AA00F02430F51C751D2041
:0106B2002225
:1007DC0012062A7BFF7A0A792C7D02E4FF12094A61
:1007EC007BFF7A0A79307D027F0112094A7B007AFD
:1007FC0000791F7D0AE4FF12094A7BFF7A0A7934DB
:10080C007D0DE4FF12094A7B007A00791B7D0A7F7B
:10081C000112094A7BFF7A0A79397D0C7F010209A2
:01082C004A81
:10098F0075985043878053890F438920758BF37572
:0D099F008DF3C2ABD28ED2AFD2ACC2BC225F
:080A87008F993099FDC29922FC
:040277008E088F0955
:10027B00E4F50AF50BC3E50B9509E5086480F8E591
:10028B000A648098400302031AD2A0C2A1C2A2D270
:10029B00A37FF47E01120A5EC2A0C2A1C2A2D2A3A6
:1002AB007FF47E01120A5EC2A0C2A1D2A2D2A37FAA
:1002BB00F47E01120A5EC2A0C2A1D2A2C2A37FF435
:1002CB007E01120A5EC2A0D2A1D2A2C2A37FF47E8B
:1002DB0001120A5EC2A0D2A1C2A2C2A37FF47E0108
:1002EB00120A5ED2A0D2A1C2A2C2A37FF47E0112D7
:1002FB000A5ED2A0C2A1C2A2C2A37FF47E01120ADF
:0F030B005E050BE50B6003020280050A0202800B
:01031A0022C0
:04031B008E088F09B0
:10031F00E4F50AF50BC3E50B9509E5086480F8E5EC
:10032F000A64809840030203BED2A0C2A1C2A2C237
:10033F00A37FF47E01120A5ED2A0D2A1C2A2C2A3F1
:10034F007FF47E01120A5EC2A0D2A1C2A2C2A37F15
:10035F00F47E01120A5EC2A0D2A1D2A2C2A37FF480
:10036F007E01120A5EC2A0C2A1D2A2C2A37FF47EF6
:10037F0001120A5EC2A0C2A1D2A2D2A37FF47E0153
:10038F00120A5EC2A0C2A1C2A2D2A37FF47E011242
:10039F000A5ED2A0C2A1C2A2D2A37FF47E01120A2A
:0F03AF005E050BE50B6003020324050A0203241D
:0103BE00221C
:0403BF008E088F090C
:1003C300E4F50AF50BC3E50B9509E5086480F8E548
:1003D3000A6480984003020462D2A0C2A1C2A2C2EE
:1003E300A37FC87E00120A5ED2A0D2A1C2A2C2A37A
:1003F3007FC87E00120A5EC2A0D2A1C2A2C2A37F9E
:10040300C87E00120A5EC2A0D2A1D2A2C2A37FC834
:100413007E00120A5EC2A0C2A1D2A2C2A37FC87E7E
:1004230000120A5EC2A0C2A1D2A2D2A37FC87E00DC
:10043300120A5EC2A0C2A1C2A2D2A37FC87E0012CA
:100443000A5ED2A0C2A1C2A2D2A37FC87E00120AB2
:0F0453005E050BE50B60030203C8050A0203C830
:010462002277
:040463008E088F0967
:10046700E4F50AF50BC3E50B9509E5086480F8E5A3
:100477000A6480984003020506D2A0C2A1C2A2C2A4
:10048700A37FE87E03120A5ED2A0D2A1C2A2C2A3B2
:100497007FE87E03120A5EC2A0D2A1C2A2C2A37FD6
:1004A700E87E03120A5EC2A0D2A1D2A2C2A37FE84D
:1004B7007E03120A5EC2A0C2A1D2A2C2A37FE87EB7
:1004C70003120A5EC2A0C2A1D2A2D2A37FE87E0312
:1004D700120A5EC2A0C2A1C2A2D2A37FE87E031203
:1004E7000A5ED2A0C2A1C2A2D2A37FE87E03120AEB
:0F04F7005E050BE50B600302046C050A02046C42
:0105060022D2
:1009DD00EF1FAC0670011E4C600A7D027CEFDCFE41
:0409ED00DDFC80ECC1
:0109F10022E3
:0B0A5E00EF1FAC0670011E4C70F6226A
:1009AC00EF1FAA0670011E4A600FE4FDEDC3947898
:0909BC007480948050EA0D80F370
:0109C500220F
:100A3F00766F6C746167653A202020202020562045
:070A8F00D2B2C2B3D2B422BF
:10072A00120A8FC2B2D2B3C2B3D2B4D2B3C2B3C264
:10073A00B4D2B3C2B3D2B4E4FDFCD2B3C2B3EE2591
:10074A00E0FE30B4010E0DBD00010CED64084C70E2
:10075A00E9E4FCFDEFC313FF30B403430780D2B3CF
:10076A00C2B30DBD00010CED64084C70E7D2B3D2E0
:09077A00B4D2B2EFB50602AF06DD
:010783002253
:1007840078087C007D007BFF7A0A793F7E007F1029
:100794001200D312072A7E007C017DF412013F1C53
:1007A4007DFF120151EF75F064842430F511751248
:1007B4002EEF75F00A8475F00A84E5F02430F51301
:1007C400EF75F00A84E5F02430F5147B007A0079A3
:0807D400087D01E4FF0208D5D5
:1001CC00E4F50875900FAF90EF640F7003020274A2
:1001DC00AF90EF640F7003020274AF907590F0AEA5
:1001EC0090EF4E1201A602627702677B026C7D02D1
:1001FC00717E024EB70253BB0258BD025DBE023A7D
:10020C00D7023FDB0244DD0249DE0226E7022BEB7C
:10021C000230ED0235EE000002747508018049755C
:10022C0008028044750803803F750804803A7508FD
:10023C000580357508068030750807802B75080811
:10024C008026750809802175080A801C75080B80AA
:10025C001775080C801275080D800D75080E800836
:0A026C0075080F8003750810AF0835
:010276002265
:0300000002059E58
:0C059E00787FE4F6D8FD7581270205E5A2
:10000300E709F608DFFA8046E709F208DFFA803EDF
:1000130088828C83E709F0A3DFFA8032E309F608CC
:10002300DFFA8078E309F208DFFA807088828C8334
:10003300E309F0A3DFFA806489828A83E0A3F608E8
:10004300DFFA805889828A83E0A3F208DFFA804CC2
:1000530080D280FA80C680D4806980F28033801099
:1000630080A680EA809A80A880DA80E280CA803302
:1000730089828A83ECFAE493A3C8C582C8CCC5837A
:10008300CCF0A3C8C582C8CCC583CCDFE9DEE7804A
:100093000D89828A83E493A3F608DFF9ECFAA9F0C9
:1000A300EDFB2289828A83ECFAE0A3C8C582C8CC1F
:1000B300C583CCF0A3C8C582C8CCC583CCDFEADE38
:1000C300E880DB89828A83E493A3F208DFF980CC9A
:1000D30088F0EF60010E4E60C388F0ED2402B40493
:1000E3000050B9F582EB2402B4040050AF2323453A
:0600F3008223900053730C
:1000F900BB010689828A83E0225002E722BBFE0205
:09010900E32289828A83E4932237
:10011200BB010CE58229F582E5833AF583E02250A2
:1001220006E92582F8E622BBFE06E92582F8E222EC
:0D013200E58229F582E5833AF583E4932206
:10013F00EF8DF0A4A8F0CF8CF0A428CE8DF0A42ED4
:02014F00FE228E
:10015100BC000BBE0029EF8DF084FFADF022E4CC92
:10016100F875F008EF2FFFEE33FEEC33FCEE9DEC5B
:10017100984005FCEE9DFE0FD5F0E9E4CEFD22EDA1
:10018100F8F5F0EE8420D21CFEADF075F008EF2FEB
:10019100FFED33FD4007985006D5F0F222C398FDDC
:0501A1000FD5F0EA2279
:1001A600D083D082F8E4937012740193700DA3A3E8
:1001B60093F8740193F5828883E4737402936860FC
:0601C600EFA3A3A380DFFC
:1005AA00020507E493A3F8E493A34003F68001F25B
:1005BA0008DFF48029E493A3F85407240CC8C33352
:1005CA00C4540F4420C8834004F456800146F6DF21
:1005DA00E4800B0102040810204080900A69E47E3E
:1005EA00019360BCA3FF543F30E509541FFEE49316
:1005FA00A360010ECF54C025E060A840B8E493A3DD
:10060A00FAE493A3F8E493A3C8C582C8CAC583CA07
:10061A00F0A3C8C582C8CAC583CADFE9DEE780BEBF
:010A72000083
:00000001FF
